{
  "address": "0x51471C324b5041BF53c7E5cAD7392f78c397E67b",
  "abi": [
    {
      "anonymous": false,
      "inputs": [
        {
          "indexed": true,
          "internalType": "address",
          "name": "_address",
          "type": "address"
        }
      ],
      "name": "AddressAdded",
      "type": "event"
    },
    {
      "anonymous": false,
      "inputs": [
        {
          "indexed": true,
          "internalType": "address",
          "name": "_address",
          "type": "address"
        }
      ],
      "name": "AddressRemoved",
      "type": "event"
    },
    {
      "anonymous": false,
      "inputs": [
        {
          "indexed": true,
          "internalType": "address",
          "name": "previousOwner",
          "type": "address"
        },
        {
          "indexed": true,
          "internalType": "address",
          "name": "newOwner",
          "type": "address"
        }
      ],
      "name": "OwnershipTransferred",
      "type": "event"
    },
    {
      "inputs": [
        {
          "internalType": "address[]",
          "name": "_addresses",
          "type": "address[]"
        }
      ],
      "name": "addAddresses",
      "outputs": [],
      "stateMutability": "nonpayable",
      "type": "function"
    },
    {
      "inputs": [],
      "name": "addressType",
      "outputs": [
        {
          "internalType": "string",
          "name": "",
          "type": "string"
        }
      ],
      "stateMutability": "view",
      "type": "function"
    },
    {
      "inputs": [],
      "name": "getAddresses",
      "outputs": [
        {
          "internalType": "address[]",
          "name": "",
          "type": "address[]"
        }
      ],
      "stateMutability": "view",
      "type": "function"
    },
    {
      "inputs": [
        {
          "internalType": "string",
          "name": "_addressType",
          "type": "string"
        },
        {
          "internalType": "address",
          "name": "_owner",
          "type": "address"
        }
      ],
      "name": "initialize",
      "outputs": [],
      "stateMutability": "nonpayable",
      "type": "function"
    },
    {
      "inputs": [],
      "name": "owner",
      "outputs": [
        {
          "internalType": "address",
          "name": "",
          "type": "address"
        }
      ],
      "stateMutability": "view",
      "type": "function"
    },
    {
      "inputs": [
        {
          "internalType": "address",
          "name": "_previousContract",
          "type": "address"
        },
        {
          "internalType": "address",
          "name": "_address",
          "type": "address"
        }
      ],
      "name": "removeAddress",
      "outputs": [],
      "stateMutability": "nonpayable",
      "type": "function"
    },
    {
      "inputs": [],
      "name": "renounceOwnership",
      "outputs": [],
      "stateMutability": "nonpayable",
      "type": "function"
    },
    {
      "inputs": [
        {
          "internalType": "address",
          "name": "newOwner",
          "type": "address"
        }
      ],
      "name": "transferOwnership",
      "outputs": [],
      "stateMutability": "nonpayable",
      "type": "function"
    }
  ],
  "transactionHash": "0x70bf2f1cf1e5e818ef6b731ed2a0fd789e70dc9a8d4d05713f5aa66ae8347496",
  "args": [],
  "solcInputHash": "1d82de8daf219455917eefe334eb9bac",
  "bytecode": "0x608060405234801561001057600080fd5b50600061001b61006a565b600080546001600160a01b0319166001600160a01b0383169081178255604051929350917f8be0079c531659141344cd1fd0a4f28419497f9722a3daafe3b4186f6b6457e0908290a35061006e565b3390565b610cef8061007d6000396000f3fe608060405234801561001057600080fd5b50600436106100885760003560e01c80638da5cb5b1161005b5780638da5cb5b146100db578063a39fac12146100f0578063b6fac15a14610105578063f2fde38b1461011857610088565b80633628731c1461008d578063506cd107146100a2578063715018a6146100c05780637ab4339d146100c8575b600080fd5b6100a061009b366004610aa6565b61012b565b005b6100aa610227565b6040516100b79190610bf2565b60405180910390f35b6100a06102b5565b6100a06100d6366004610b15565b610361565b6100e361043d565b6040516100b79190610b91565b6100f861044c565b6040516100b79190610ba5565b6100a0610113366004610a74565b61045d565b6100a0610126366004610a53565b610503565b610133610605565b6001600160a01b031661014461043d565b6001600160a01b03161461018d576040805162461bcd60e51b81526020600482018190526024820152600080516020610c9a833981519152604482015290519081900360640190fd5b60005b81811015610222576101c48383838181106101a757fe5b90506020020160208101906101bc9190610a53565b600190610609565b8282828181106101d057fe5b90506020020160208101906101e59190610a53565b6001600160a01b03167fa226db3f664042183ee0281230bba26cbf7b5057e50aee7f25a175ff45ce4d7f60405160405180910390a2600101610190565b505050565b6003805460408051602060026001851615610100026000190190941693909304601f810184900484028201840190925281815292918301828280156102ad5780601f10610282576101008083540402835291602001916102ad565b820191906000526020600020905b81548152906001019060200180831161029057829003601f168201915b505050505081565b6102bd610605565b6001600160a01b03166102ce61043d565b6001600160a01b031614610317576040805162461bcd60e51b81526020600482018190526024820152600080516020610c9a833981519152604482015290519081900360640190fd5b600080546040516001600160a01b03909116907f8be0079c531659141344cd1fd0a4f28419497f9722a3daafe3b4186f6b6457e0908390a3600080546001600160a01b0319169055565b600054600160a81b900460ff168061037c575061037c61071d565b806103915750600054600160a01b900460ff16155b6103cc5760405162461bcd60e51b815260040180806020018281038252602e815260200180610c6c602e913960400191505060405180910390fd5b600054600160a81b900460ff16158015610403576000805460ff60a01b1960ff60a81b19909116600160a81b1716600160a01b1790555b61040f6003858561099b565b5061041a600161072e565b61042382610503565b8015610437576000805460ff60a81b191690555b50505050565b6000546001600160a01b031690565b60606104586001610796565b905090565b610465610605565b6001600160a01b031661047661043d565b6001600160a01b0316146104bf576040805162461bcd60e51b81526020600482018190526024820152600080516020610c9a833981519152604482015290519081900360640190fd5b6104cb60018383610879565b6040516001600160a01b038216907f24a12366c02e13fe4a9e03d86a8952e85bb74a456c16e4a18b6d8295700b74bb90600090a25050565b61050b610605565b6001600160a01b031661051c61043d565b6001600160a01b031614610565576040805162461bcd60e51b81526020600482018190526024820152600080516020610c9a833981519152604482015290519081900360640190fd5b6001600160a01b0381166105aa5760405162461bcd60e51b8152600401808060200182810382526026815260200180610c466026913960400191505060405180910390fd5b600080546040516001600160a01b03808516939216917f8be0079c531659141344cd1fd0a4f28419497f9722a3daafe3b4186f6b6457e091a3600080546001600160a01b0319166001600160a01b0392909216919091179055565b3390565b6001600160a01b03811660011480159061062b57506001600160a01b03811615155b61066e576040805162461bcd60e51b815260206004820152600f60248201526e496e76616c6964206164647265737360881b604482015290519081900360640190fd5b6001600160a01b03818116600090815260018401602052604090205416156106cd576040805162461bcd60e51b815260206004820152600d60248201526c105b1c9958591e481859191959609a1b604482015290519081900360640190fd5b60016000818152838201602052604080822080546001600160a01b039586168085529284208054969091166001600160a01b03199687161790559183905281549093169092179091558154019055565b600061072830610995565b15905090565b805415610771576040805162461bcd60e51b815260206004820152600c60248201526b105b1c9958591e481a5b9a5d60a21b604482015290519081900360640190fd5b60016000818152918101602052604090912080546001600160a01b0319169091179055565b60606000826000015467ffffffffffffffff811180156107b557600080fd5b506040519080825280602002602001820160405280156107df578160200160208202803683370190505b50600160008181529085016020526040812054919250906001600160a01b03165b6001600160a01b0381161580159061082257506001600160a01b038116600114155b1561086e578083838151811061083457fe5b6001600160a01b03928316602091820292909201810191909152918116600090815260018088019093526040902054929091019116610800565b50909150505b919050565b6001600160a01b03811660011480159061089b57506001600160a01b03811615155b6108de576040805162461bcd60e51b815260206004820152600f60248201526e496e76616c6964206164647265737360881b604482015290519081900360640190fd5b6001600160a01b038281166000908152600185016020526040902054811690821614610947576040805162461bcd60e51b8152602060048201526013602482015272496e76616c696420707265764164647265737360681b604482015290519081900360640190fd5b6001600160a01b039081166000818152600185016020526040808220805495851683529082208054959094166001600160a01b03199586161790935552805490911690558054600019019055565b3b151590565b828054600181600116156101000203166002900490600052602060002090601f0160209004810192826109d15760008555610a17565b82601f106109ea5782800160ff19823516178555610a17565b82800160010185558215610a17579182015b82811115610a175782358255916020019190600101906109fc565b50610a23929150610a27565b5090565b5b80821115610a235760008155600101610a28565b80356001600160a01b038116811461087457600080fd5b600060208284031215610a64578081fd5b610a6d82610a3c565b9392505050565b60008060408385031215610a86578081fd5b610a8f83610a3c565b9150610a9d60208401610a3c565b90509250929050565b60008060208385031215610ab8578182fd5b823567ffffffffffffffff80821115610acf578384fd5b818501915085601f830112610ae2578384fd5b813581811115610af0578485fd5b8660208083028501011115610b03578485fd5b60209290920196919550909350505050565b600080600060408486031215610b29578081fd5b833567ffffffffffffffff80821115610b40578283fd5b818601915086601f830112610b53578283fd5b813581811115610b61578384fd5b876020828501011115610b72578384fd5b602092830195509350610b889186019050610a3c565b90509250925092565b6001600160a01b0391909116815260200190565b6020808252825182820181905260009190848201906040850190845b81811015610be65783516001600160a01b031683529284019291840191600101610bc1565b50909695505050505050565b6000602080835283518082850152825b81811015610c1e57858101830151858201604001528201610c02565b81811115610c2f5783604083870101525b50601f01601f191692909201604001939250505056fe4f776e61626c653a206e6577206f776e657220697320746865207a65726f2061646472657373496e697469616c697a61626c653a20636f6e747261637420697320616c726561647920696e697469616c697a65644f776e61626c653a2063616c6c6572206973206e6f7420746865206f776e6572a26469706673582212200159bd01396a5ba625c86a24e45941aa75881e5637ff73a95ce33cc42c976fc864736f6c63430007060033",
  "devdoc": {
    "kind": "dev",
    "methods": {
      "addAddresses(address[])": {
        "params": {
          "_addresses": "Array of contract addresses to be added"
        }
      },
      "getAddresses()": {
        "returns": {
          "_0": "Array of contract addresses"
        }
      },
      "owner()": {
        "details": "Returns the address of the current owner."
      },
      "removeAddress(address,address)": {
        "params": {
          "_address": "The address to remove from the linked list. ",
          "_previousContract": "The address positionally located before the address that will be deleted. This may be the SENTINEL address if the list contains one contract address"
        }
      },
      "renounceOwnership()": {
        "details": "Leaves the contract without owner. It will not be possible to call `onlyOwner` functions anymore. Can only be called by the current owner. NOTE: Renouncing ownership will leave the contract without an owner, thereby removing any functionality that is only available to the owner."
      },
      "transferOwnership(address)": {
        "details": "Transfers ownership of the contract to a new account (`newOwner`). Can only be called by the current owner."
      }
    },
    "version": 1
  },
  "userdoc": {
    "kind": "user",
    "methods": {
      "addAddresses(address[])": {
        "notice": "Adds addresses to the linked list. Will revert if the address is already in the list.  Can only be called by the Registry owner."
      },
      "addressType()": {
        "notice": "Storage field for what type of contract this Registry is storing "
      },
      "getAddresses()": {
        "notice": "Returns an array of all contract addresses in the linked list"
      },
      "initialize(string,address)": {
        "notice": "Initializer function"
      },
      "removeAddress(address,address)": {
        "notice": "Removes an address from the linked list. Can only be called by the Registry owner."
      }
    },
    "notice": "A registry to hold Contract addresses.  Underlying data structure is a singly linked list. ",
    "version": 1
  },
  "storageLayout": {
    "storage": [
      {
        "astId": 3022,
        "contract": "contracts/AddressRegistry.sol:AddressRegistry",
        "label": "_owner",
        "offset": 0,
        "slot": "0",
        "type": "t_address"
      },
      {
        "astId": 1308,
        "contract": "contracts/AddressRegistry.sol:AddressRegistry",
        "label": "_initialized",
        "offset": 20,
        "slot": "0",
        "type": "t_bool"
      },
      {
        "astId": 1311,
        "contract": "contracts/AddressRegistry.sol:AddressRegistry",
        "label": "_initializing",
        "offset": 21,
        "slot": "0",
        "type": "t_bool"
      },
      {
        "astId": 3515,
        "contract": "contracts/AddressRegistry.sol:AddressRegistry",
        "label": "addressList",
        "offset": 0,
        "slot": "1",
        "type": "t_struct(Mapping)3722_storage"
      },
      {
        "astId": 3518,
        "contract": "contracts/AddressRegistry.sol:AddressRegistry",
        "label": "addressType",
        "offset": 0,
        "slot": "3",
        "type": "t_string_storage"
      }
    ],
    "types": {
      "t_address": {
        "encoding": "inplace",
        "label": "address",
        "numberOfBytes": "20"
      },
      "t_bool": {
        "encoding": "inplace",
        "label": "bool",
        "numberOfBytes": "1"
      },
      "t_mapping(t_address,t_address)": {
        "encoding": "mapping",
        "key": "t_address",
        "label": "mapping(address => address)",
        "numberOfBytes": "32",
        "value": "t_address"
      },
      "t_string_storage": {
        "encoding": "bytes",
        "label": "string",
        "numberOfBytes": "32"
      },
      "t_struct(Mapping)3722_storage": {
        "encoding": "inplace",
        "label": "struct MappedSinglyLinkedList.Mapping",
        "members": [
          {
            "astId": 3717,
            "contract": "contracts/AddressRegistry.sol:AddressRegistry",
            "label": "count",
            "offset": 0,
            "slot": "0",
            "type": "t_uint256"
          },
          {
            "astId": 3721,
            "contract": "contracts/AddressRegistry.sol:AddressRegistry",
            "label": "addressMap",
            "offset": 0,
            "slot": "1",
            "type": "t_mapping(t_address,t_address)"
          }
        ],
        "numberOfBytes": "64"
      },
      "t_uint256": {
        "encoding": "inplace",
        "label": "uint256",
        "numberOfBytes": "32"
      }
    }
  }
}